:100000000C9462000C948A000C948A000C948A0070
:100010000C948A000C948A000C948A000C948A0038
:100020000C948A000C948A000C948A000C9434047A
:100030000C948A000C948A000C948A000C948A0018
:100040000C94B4040C948A000C94B9070C94EB073C
:100050000C948A000C948A000C948A000C948A00F8
:100060000C948A000C948A00000000080002010031
:100070000003040700000000000000000102040863
:100080001020408001020408102001020408102002
:10009000040404040404040402020202020203032E
:1000A00003030303000000002300260029000000D2
:1000B0000000250028002B0000000000240027007D
:1000C0002A001B0811241FBECFEFD8E0DEBFCDBF32
:1000D00011E0A0E0B1E0E4E7F6E102C005900D9286
:1000E000A83AB107D9F722E0A8EAB1E001C01D9211
:1000F000AA38B207E1F710E0C4ECD0E004C02297C0
:10010000FE010E942B0BC23CD107C9F70E946D096A
:100110000C94380B0C94000026E040E855E260E0B7
:1001200070E08DEE91E00E94570788E00E94CB01BD
:1001300087E00E94C80180ED97E00E94710260E0B4
:100140008CE00E94DC050C946303FC01019000200C
:10015000E9F7BF0161507109681B790B0E947203B6
:100160000C946D03AF92BF92DF92EF92FF920F93C8
:100170001F93CF93DF93CDB7DEB76F970FB6F89489
:10018000DEBF0FBECDBF1092AF011092AE018EE167
:100190008F8FBE01615E7F4FCE0101960E941304D6
:1001A000882309F49AC0AF8DB0E06B8170E0605392
:1001B00071094091AA015091AB0120E030E080E04C
:1001C00090E08D0101501109EAE0DE2E8A179B07AD
:1001D00064F541E050E0E0E0F0E07801E81AF90A67
:1001E000EE15FF0544F431965A01DA9CA001DB9C20
:1001F000500D1124F5CF8230910599F0E1E0F0E047
:10020000EC0FFD1FE80FF91FE081F0E0F097E49F8D
:100210007001E59FF00CF49FF00C11242E0D3F1D92
:1002200002C0260F371F0196D1CF5093AB014093E8
:10023000AA0128513C4F3093A9012093A8018EE0D8
:100240000E949605BC01882777FD8095982F0E9413
:10025000180A20E030E040EA50E40E94A40A20E0BE
:1002600030EC4FE754E40E947D092AE037ED43E289
:100270005CE30E947D090E94E5097093AD016093E3
:10028000AC0166E571E08DEE91E00E949C08609102
:10029000A8017091A9014AE050E08DEE91E00E9422
:1002A00054096AE070E080E090E00E94210560E679
:1002B00071E08DEE91E00E949C086091AC0170911C
:1002C000AD014AE050E08DEE91E00E9454096AE0F1
:1002D00070E080E090E00E9421058CE00E944B06D7
:1002E000892B51F06AE671E08DEE91E00E94A90839
:1002F00083E791E00E94A5006F960FB6F894DEBFE9
:100300000FBECDBFDF91CF911F910F91FF90EF9066
:10031000DF90BF90AF900895682780E1689F9001BB
:100320001124622770E0362F2227492F50E0242B1A
:10033000352BCB01F4E095958795FA95E1F72827C1
:100340003927CB01A3E0880F991FAA95E1F78227EF
:10035000932708951F93CF93DF93162FEC018FEF10
:100360009FEF115020F069910E948C01FACFDF912C
:10037000CF911F910895E6E7F1E090E02191821777
:1003800029F09F5F9031D1F780E00895892F08957B
:100390008093000108958093010108951F93CF93E6
:1003A000DF939091DB01992329F08091D8018F5F31
:1003B0008093D8012091DA018091D901921759F0E8
:1003C000803510F42BE001C02DE1820F8093D9011C
:1003D0009093DA0103C08C5E8093D9012091D901FA
:1003E000203A08F47AC08091D3019091D401969577
:1003F00087959093D4018093D3013091D801353003
:1004000028F098609093D4018093D301205A2093D0
:10041000D9011092D8018091D701882309F44DC0E9
:100420008091D2018F5F8093D2018C3008F455C047
:10043000C091D301D091D4018C2F8F730E94BB0146
:10044000182FCE01C6E096958795CA95E1F70E94D0
:10045000BB0190E1199F90011124822B9091B20170
:1004600091110EC08093B3019CEF980F9B3140F027
:100470001092D7018091B1018F5F8093B1012DC09F
:10048000E091B20191E09E0F9093B201F0E0EC5444
:10049000FE4F80839091B2018091B301981750F084
:1004A0001092D7018091B0018F5F8093B00181E0FD
:1004B0008093D6011092D20110C08091D301909107
:1004C000D40188339B4049F481E08093D701109296
:1004D000D2011092B2011092D601DF91CF911F91FB
:1004E00008954F925F926F927F92BF92CF92DF9268
:1004F000EF92FF920F931F93CF93DF93CDB7DEB7A9
:100500002E970FB6F894DEBF0FBECDBFBC018EE0B4
:10051000E8E4F1E0DE01119601900D928A95E1F791
:100520006115710509F49AC080E090E00E94160AF6
:100530009B01AC0160E070E080E89FE30E947D09D0
:1005400020E030E040E05EE30E94A40A6B017C0101
:100550008E010D5F1F4FBB24B394F801619171911F
:100560008F0180E090E00E94160A9B01AC0160E0E0
:1005700074E284E79BE40E947D099B01AC0160E08A
:1005800070E080E89FE30E947D099B01AC01C701F8
:10059000B6010E947D090E94E5092B013C01F2E0B1
:1005A0004F1A5108610871082DEF42162FEF5206BD
:1005B0006104710428F0B394E7E0BE12CECF05C009
:1005C000F6E0BF1609F44AC00CC06230710581051F
:1005D000910508F443C06115710521E0820791057A
:1005E000E8F5BB20D9F11092800028E0209381002B
:1005F000209181002B2920938100709389006093C2
:10060000880080916F00826080936F0061E080912C
:1006100000010E94DC0560E0809101010E94DC0580
:1006200061E0809102010E94DC056091DC01809113
:1006300002012E960FB6F894DEBF0FBECDBFDF913C
:10064000CF911F910F91FF90EF90DF90CF90BF90CF
:100650007F906F905F904F900C9415062E960FB67A
:10066000F894DEBF0FBECDBFDF91CF911F910F91E8
:10067000FF90EF90DF90CF90BF907F906F905F9052
:100680004F900895CF931092E2011092E1011092E1
:10069000E0016091DC01C1E06C27809102010E94C1
:1006A0001506C093DF01CF9108956091DC01809120
:1006B00002010E94150660E0809100010E9415066B
:1006C0001092DF0108958091D501811105C081E06C
:1006D0008093D5011092D70108958091DF01811197
:1006E000FCCF0895BF92CF92DF92EF92FF920F93CB
:1006F0001F93CF93DF93F82EE92ED62E8BE186172A
:1007000008F486C00E946D03C3E0CD0D6C2F8FEFFF
:100710009FEF0E948C01AC2FB0E044E0B595A79507
:100720004A95E1F7AA58BE4F2C9120930B01CF7048
:10073000EC2FF0E0EA58FE4F208120930C010BE0F3
:1007400011E0BF2CCF2DDE2D0E5F1F4F2C2F2B194C
:100750002D15D8F47E01C9906C2D0E948C01AC2D12
:10076000B0E034E0B595A7953A95E1F7AA58BE4FA9
:100770002C91D8012C93D701EC91EF70F0E0EA585E
:10078000FE4F2081F8012183DFCF61E06D0D660F00
:1007900080959095E62FF0E0E55FFE4FDC0114E0D8
:1007A000B695A7951A95E1F7AF70BB27AA58BE4F2B
:1007B0002C912083E1E0E60FF0E0E55FFE4FDC01E5
:1007C000AF70BB27AA58BE4F2C912083E2E0E60F02
:1007D000F0E0E55FFE4FDC01AB2FBB27A295AF70C9
:1007E000AA58BE4F2C912083A3E0A60FB0E0A55FCE
:1007F000BE4FE92FFF27EF70FF27EA58FE4F808199
:100800008C93645F6093E3010E94420381E001C026
:1008100080E0DF91CF911F910F91FF90EF90DF90DB
:10082000CF90BF900895FB012091D6012223C9F0FB
:100830002091B20123503081231708F42083408196
:1008400050E065EB71E00E942F0B1092D601609191
:10085000B20184EB91E00E94AA0121E0883B904F15
:1008600009F020E0822F08951F920F920FB60F9289
:1008700011242F933F934F935F936F937F938F93A5
:100880009F93AF93BF93EF93FF938091D5018823FC
:1008900021F08091DF01882371F18091DF018823AD
:1008A000C9F08091E00191E0980F9093E0018111EF
:1008B00011C0E091E2018091E301E81718F10E9474
:1008C00055038091DD019091DE0101969093DE0148
:1008D0008093DD018091E001883010F01092E001FA
:1008E0008091D501882379F18091DF0181112BC09E
:1008F0000E94CE0128C0809101010E944B06809386
:10090000DB01CBCFF0E0ED5FFE4F60812091E10194
:1009100081E0820F8093E10181E090E001C0880FC7
:100920002A95EAF76823809100010E9415068091BC
:10093000E101863078F21092E1018091E2018F5F4F
:100940008093E201C7CFFF91EF91BF91AF919F914B
:100950008F917F916F915F914F913F912F910F9068
:100960000FBE0F901F9018951F920F920FB60F9207
:1009700011242F933F938F939F93AF93BF938091B5
:10098000E5019091E601A091E701B091E801309175
:10099000E40123E0230F2D3720F40196A11DB11DA2
:1009A00005C026E8230F0296A11DB11D2093E40186
:1009B0008093E5019093E601A093E701B093E801ED
:1009C0008091E9019091EA01A091EB01B091EC01D5
:1009D0000196A11DB11D8093E9019093EA01A093B6
:1009E000EB01B093EC01BF91AF919F918F913F913B
:1009F0002F910F900FBE0F901F9018953FB7F8944E
:100A00008091E9019091EA01A091EB01B091EC0194
:100A100026B5A89B05C02F3F19F00196A11DB11D59
:100A20003FBF6627782F892F9A2F620F711D811D76
:100A3000911D42E0660F771F881F991F4A95D1F7D5
:100A400008958F929F92AF92BF92CF92DF92EF92D2
:100A5000FF926B017C010E94FE044B015C01C114FA
:100A6000D104E104F104F1F00E947C090E94FE042B
:100A7000681979098A099B09683E734081059105C7
:100A800070F321E0C21AD108E108F10888EE880E5F
:100A900083E0981EA11CB11CC114D104E104F1042F
:100AA00029F7DDCFFF90EF90DF90CF90BF90AF9010
:100AB0009F908F900895789484B5826084BD84B5AA
:100AC000816084BD85B5826085BD85B5816085BD49
:100AD000EEE6F0E0808181608083E1E8F0E0108262
:100AE000808182608083808181608083E0E8F0E0A3
:100AF000808181608083E1EBF0E08081846080838D
:100B0000E0EBF0E0808181608083EAE7F0E08081C3
:100B10008460808380818260808380818160808323
:100B20008081806880831092C10008958E3008F023
:100B30008E5087702091470190E4299F90011124E5
:100B4000822B80937C0080917A00806480937A006D
:100B500080917A0086FDFCCF809178002091790009
:100B600090E0922B0895833081F028F4813099F041
:100B70008230A1F008958730A9F08830B9F0843030
:100B8000D1F4809180008F7D03C0809180008F77A9
:100B900080938000089584B58F7702C084B58F7DDF
:100BA00084BD08958091B0008F7703C08091B0001C
:100BB0008F7D8093B0000895CF93DF9390E0FC0188
:100BC000E458FF4F2491FC01E057FF4F84918823A4
:100BD00049F190E0880F991FFC01E854FF4FA5915F
:100BE000B49182559F4FFC01C591D4919FB761117B
:100BF00008C0F8948C91209582238C93888182235D
:100C00000AC0623051F4F8948C91322F30958323CE
:100C10008C938881822B888304C0F8948C91822BDA
:100C20008C939FBFDF91CF9108950F931F93CF9324
:100C3000DF931F92CDB7DEB7282F30E0F901E859D6
:100C4000FF4F8491F901E458FF4F1491F901E057E7
:100C5000FF4F04910023C9F0882321F069830E948B
:100C6000B3056981E02FF0E0EE0FFF1FE255FF4F63
:100C7000A591B4919FB7F8948C91611103C0109520
:100C8000812301C0812B8C939FBF0F90DF91CF9167
:100C90001F910F910895CF93DF93282F30E0F90132
:100CA000E859FF4F8491F901E458FF4FD491F901BD
:100CB000E057FF4FC491CC2391F081110E94B305FE
:100CC000EC2FF0E0EE0FFF1FEC55FF4FA591B49114
:100CD0002C912D2381E090E021F480E002C080E09F
:100CE00090E0DF91CF910895FC01818D228D90E0FD
:100CF000805C9F4F821B91098F7399270895FC0197
:100D0000918D828D981731F0828DE80FF11D858DC0
:100D100090E008958FEF9FEF0895FC01918D828DF3
:100D2000981761F0828DDF01A80FB11D5D968C913F
:100D3000928D9F5F9F73928F90E008958FEF9FEF4A
:100D4000089581E198E0892B49F080E090E0892BBB
:100D500029F00E94110881110C9400000895FC01F3
:100D6000848DDF01A80FB11DA35ABF4F2C91848D34
:100D700090E001968F739927848FA689B7892C9369
:100D8000A089B1898C9180648C93938D848D981304
:100D900006C00288F389E02D80818F7D80830895CD
:100DA000CF93DF93EC01888D8823C9F0EA89FB8912
:100DB000808185FD05C0A889B9898C9186FD0FC009
:100DC0000FB607FCF5CF808185FFF2CFA889B989DE
:100DD0008C9185FFEDCFCE010E94AF06E7CFDF916A
:100DE000CF910895CF92DF92FF920F931F93CF93ED
:100DF000DF931F92CDB7DEB76C0181E0D601589624
:100E00008C9358975B969C915B975C968C915C97C2
:100E1000981307C05096ED91FC915197808185FD04
:100E20002EC0F601038D10E00F5F1F4F0F731127C7
:100E3000F02EF601848DF81211C00FB607FCF9CF21
:100E4000D6015096ED91FC915197808185FFF1CFAD
:100E5000C60169830E94AF066981EBCF838DE80FDD
:100E6000F11DE35AFF4F6083D6015B960C935B97AD
:100E70005296ED91FC915397808180620CC0D6010F
:100E80005696ED91FC91579760835096ED91FC91A9
:100E9000519780818064808381E090E00F90DF91A2
:100EA000CF911F910F91FF90DF90CF900895BF9247
:100EB000CF92DF92EF92FF92CF93DF93EC016A0122
:100EC0007B01B22EE889F98982E08083411581EEA9
:100ED000580761057105A1F060E079E08DE390E0CD
:100EE000A70196010E94070B2150310941095109C0
:100EF0005695479537952795211580E1380798F045
:100F0000E889F989108260E874E88EE190E0A70131
:100F100096010E94070B215031094109510956954C
:100F2000479537952795EC85FD853083EE85FF85C0
:100F30002083188EEC89FD89B082EA89FB89808143
:100F400080618083EA89FB89808188608083EA8967
:100F5000FB89808180688083EA89FB8980818F7D1D
:100F60008083DF91CF91FF90EF90DF90CF90BF9083
:100F700008951F920F920FB60F9211242F938F9303
:100F80009F93EF93FF93E091FD01F091FE0180812B
:100F9000E0910302F091040282FD12C090818091E1
:100FA00006028F5F8F7320910702821751F0E09144
:100FB0000602F0E0E351FE4F958F8093060201C0D8
:100FC0008081FF91EF919F918F912F910F900FBE94
:100FD0000F901F9018951F920F920FB60F92112429
:100FE0002F933F934F935F936F937F938F939F9331
:100FF000AF93BF93EF93FF938DEE91E00E94AF0606
:10100000FF91EF91BF91AF919F918F917F916F91E0
:101010005F914F913F912F910F900FBE0F901F90B6
:1010200018958DEE91E00E94740621E0892B09F459
:1010300020E0822F08951092F0011092EF0188EEC7
:1010400093E0A0E0B0E08093F1019093F201A093CF
:10105000F301B093F4018AE891E09093EE0180935C
:10106000ED0185EC90E09093FA018093F90184EC16
:1010700090E09093FC018093FB0180EC90E09093D2
:10108000FE018093FD0181EC90E09093000280933B
:10109000FF0182EC90E0909302028093010286ECC3
:1010A00090E0909304028093030210920602109243
:1010B000070210920802109209020895CF92DF925F
:1010C000EF92FF920F931F93CF93DF937C016A01FE
:1010D000EB0100E010E00C151D0571F06991D701DE
:1010E000ED91FC910190F081E02DC7010995892BCC
:1010F00019F00F5F1F4FEFCFC801DF91CF911F9104
:101100000F91FF90EF90DF90CF90089561157105DA
:1011100081F0DB010D900020E9F7AD01415051094C
:10112000461B570BDC01ED91FC910280F381E02D11
:10113000099480E090E008950C948608DC01ED911C
:10114000FC910190F081E02D099466E971E00C9426
:1011500086080F931F93CF93DF93EC010E948608BC
:101160008C01CE010E94A508800F911FDF91CF91C5
:101170001F910F9108958F929F92AF92BF92DF922D
:10118000EF92FF920F931F93CF93DF93CDB7DEB70C
:10119000A1970FB6F894DEBF0FBECDBF7C01F42F30
:1011A000D52ECB0119A2223008F42AE08E010F5D62
:1011B0001F4F822E912CA12CB12C6F2F7D2DA501BC
:1011C00094010E94070BF22FD32ECA01015011097E
:1011D0006A3014F4E0E301C0E7E3E60FD801EC93D2
:1011E000232B242B252B49F7B801C7010E94860821
:1011F000A1960FB6F894DEBF0FBECDBFDF91CF91A1
:101200001F910F91FF90EF90DF90BF90AF909F9054
:101210008F900895CF92DF92EF92FF920F931F93DA
:10122000CF93DF93EC016A017B012115310579F43D
:10123000E881F9810190F081E02D642FDF91CF9159
:101240001F910F91FF90EF90DF90CF9009942A307B
:101250003105E9F477FF1AC06DE20E949E088C0107
:1012600044275527BA014C195D096E097F092AE008
:10127000CE010E94BB08800F911FDF91CF911F917B
:101280000F91FF90EF90DF90CF9008952AE0B70183
:10129000A601CE01DF91CF911F910F91FF90EF90AA
:1012A000DF90CF900C94BB080F931F93CF93DF93E5
:1012B000EC019A01AB01662757FD6095762F0E94DD
:1012C0000A098C01CE010E94A508800F911FDF91B1
:1012D000CF911F910F91089508950E945B050E9480
:1012E0006C090E948C00C1EAD6E00E94B2002097EF
:1012F000E1F30E94A106F9CF08950CD0EBC0E3D032
:1013000040F0DAD030F021F45F3F19F0CCC0511139
:1013100015C1CFC0F0D098F39923C9F35523B1F389
:10132000951B550BBB27AA2762177307840738F054
:101330009F5F5F4F220F331F441FAA1FA9F333D0B3
:101340000E2E3AF0E0E830D091505040E695001C67
:10135000CAF729D0FE2F27D0660F771F881FBB1F23
:10136000261737074807AB07B0E809F0BB0B802DFD
:10137000BF01FF2793585F4F2AF09E3F510568F049
:1013800092C0DCC05F3FECF3983EDCF38695779526
:101390006795B795F7959F5FC9F7880F911D96954B
:1013A000879597F90895E1E0660F771F881FBB1FA7
:1013B000621773078407BA0720F0621B730B840B54
:1013C000BA0BEE1F88F7E095089504D06894B11128
:1013D000B5C0089598D088F09F5790F0B92F9927FD
:1013E000B751A0F0D1F0660F771F881F991F1AF030
:1013F000BA95C9F712C0B13081F09FD0B1E008951D
:101400009CC0672F782F8827B85F39F0B93FCCF39D
:10141000869577956795B395D9F73EF49095809525
:10142000709561957F4F8F4F9F4F0895E89409C045
:1014300097FB3EF490958095709561957F4F8F4F07
:101440009F4F9923A9F0F92F96E9BB279395F6951D
:10145000879577956795B795F111F8CFFAF4BB0F9B
:1014600011F460FF1BC06F5F7F4F8F4F9F4F16C0FF
:10147000882311F096E911C0772321F09EE8872F89
:10148000762F05C0662371F096E8862F70E060E045
:101490002AF09A95660F771F881FDAF7880F9695BE
:1014A000879597F9089597F99F6780E870E060E065
:1014B00008959FEF80EC089500240A9416161706ED
:1014C00018060906089500240A9412161306140635
:1014D00005060895092E0394000C11F4882352F098
:1014E000BB0F40F4BF2B11F460FF04C06F5F7F4F50
:1014F0008F4F9F4F089557FD9058440F551F59F037
:101500005F3F71F04795880F97FB991F61F09F3FF0
:1015100079F087950895121613061406551FF2CF19
:101520004695F1DF08C0161617061806991FF1CF69
:1015300086957105610508940895E894BB27662790
:101540007727CB0197F908950BD0C4CFB5DF28F0EA
:10155000BADF18F0952309F0A6CFABCF1124EECF58
:10156000CADFA0F3959FD1F3950F50E0551F629FFE
:10157000F001729FBB27F00DB11D639FAA27F00DEC
:10158000B11DAA1F649F6627B00DA11D661F829F13
:101590002227B00DA11D621F739FB00DA11D621FF8
:1015A000839FA00D611D221F749F3327A00D611D15
:1015B000231F849F600D211D822F762F6A2F1124F7
:1015C0009F5750408AF0E1F088234AF0EE0FFF1F4A
:1015D000BB1F661F771F881F91505040A9F79E3F81
:1015E000510570F060CFAACF5F3FECF3983EDCF37B
:1015F000869577956795B795F795E7959F5FC1F7BE
:10160000FE2B880F911D9695879597F90895A1E275
:101610001A2EAA1BBB1BFD010DC0AA1FBB1FEE1F6C
:10162000FF1FA217B307E407F50720F0A21BB30BB7
:10163000E40BF50B661F771F881F991F1A9469F733
:1016400060957095809590959B01AC01BD01CF018F
:101650000895EE0FFF1F0590F491E02D0994FB0112
:10166000DC0102C001900D9241505040D8F708951E
:04167000F894FFCF1C
:101674000C0B0A2A2A2A2A2A2A382C0000000000E5
:101684000000000000000000000000000000000056
:101694000000000000000000000000000000000046
:1016A4000000000000000000000000000000000036
:1016B40000000000000000010000010008004000DC
:1016C40000010004050D53656E736F72313A2000FA
:1016D40053656E736F72323A2000456E7669616E9F
:1016E400646F203230000D0E131516191A1C2325B1
:1016F40026292A2C323400000000F2065E08740603
:101704008D067F06D0060D0A006E616E00696E6656
:08171400006F7666002E000054
:00000001FF
