:100000000C9467000C948F000C948F000C948F005C
:100010000C948F000C948F000C948F000C948F0024
:100020000C948F000C948F000C948F000C948F0014
:100030000C948F000C948F000C948F000C948F0004
:100040000C94CF050C948F000C9499080C94CB0859
:100050000C948F000C948F000C948F000C948F00E4
:100060000C948F000C948F001112131415160A0BA8
:100070000C0D0E0F00010203040500000008000231
:10008000010000030407000000000000000001025E
:100090000408102040800102040810200102040816
:1000A00010200404040404040404020202020202F4
:1000B00003030303030300000000250028002B00B6
:1000C00000000000240027002A00B900FB081124CA
:1000D0001FBECFEFD8E0DEBFCDBF11E0A0E0B1E0A2
:1000E000E0E0F5E102C005900D92AE32B107D9F71C
:1000F00021E0AEE2B1E001C01D92A13FB207E1F7FD
:1001000010E0CEECD0E004C02297FE010E94710AFC
:10011000CA3CD107C9F70E943D0A0C947E0A0C9490
:100120000000EF92FF920F931F9326E040E855E204
:1001300060E070E084E591E00E9437088EE291E093
:100140000E945E0582E8E82E94EFF92E08EC1BE48D
:1001500021EE30E040E050E061E08EE291E00E946C
:1001600049048EE291E01F910F91FF90EF900C9463
:10017000D6044AE069E08EE291E00C944203EF92EB
:10018000FF920F931F9310924901109248018EE243
:1001900091E00E94FE03882309F486C08EE291E07C
:1001A0000E94FE03882341F042E068E471E08EE2A1
:1001B00091E00E940204F2CF8091480190914901A0
:1001C00090934701809346018EE291E00E94FE03E6
:1001D0008823D1F38EE291E00E94FE03882341F050
:1001E00042E068E471E08EE291E00E940204F2CF06
:1001F00020914801309149013093450120934401F9
:100200008091460190914701853F41E094073CF081
:10021000885E9340909347018093460112C0253F2A
:1002200041E0340774F0285E33403093430120935B
:1002300042019093450180934401309347012093FC
:100240004601809146019091470197FF04C01092AA
:10025000470110924601809144019091450197FF1A
:1002600004C01092450110924401609146017091C2
:1002700047014AE050E084E591E00E94340A6AE3D5
:1002800084E591E00E947E096091440170914501EE
:100290004AE050E084E591E00E94340A60E071E0B9
:1002A00084E591E00E94890984E591E00E94540769
:1002B000892B09F451C084E591E00E946D07909369
:1002C0004101809340018EE291E00E94540362E874
:1002D0008EE291E00E94BA0402E814EF28EC3BE4BD
:1002E00041EE50E060E070E08EE291E00E940E048A
:1002F00063E071E084E591E00E947C09E0915401A3
:10030000F09155010190F081E02D6091400184E56C
:1003100091E0099584E591E00E94850942E060E45E
:1003200071E08EE291E00E94DD0322E8E22E34EFDC
:10033000F32E08EC1BE421EE30E040E050E061E0F9
:100340008EE291E00E9449048EE291E01F910F91AC
:10035000FF90EF900C94D6041F910F91FF90EF90B7
:100360000895CF93CFB7F89480914A01811127C0A7
:10037000ECEAF0E08491E8E9F0E09491E82FF0E015
:10038000EE0FFF1FE054FF4FA591B4918C9189238C
:1003900021F461E08AE00E941E0761E08AE00E9489
:1003A000E5068CB580618CBD8CB580648CBD61E048
:1003B0008DE00E94E50661E08BE00E94E5068091F9
:1003C0004A018F5F80934A01CFBFCF9108958EBDC0
:1003D00000000DB407FEFDCF8EB508952CB52F7D1E
:1003E0002CBD2CB5237F2CBD2CB52C7F2CBD2DB561
:1003F00021602DBDFC0181810E941E0785E090E0F7
:100400000C947606FC018081918189130C941E075F
:10041000089560E00C94EE0161E00C94EE01EF921F
:10042000FF921F93CF93DF931F92CDB7DEB77C016E
:1004300069830E9409026981862F8F710E94E701FA
:100440008FEF0E94E701182FC7010E940C02812F35
:100450000F90DF91CF911F91FF90EF900895CF9271
:10046000DF92EF92FF920F931F93CF93DF9300D011
:100470001F92CDB7DEB78C01F22E4A835B8369836E
:100480000E9409026981862F8F7180620E94E701B4
:10049000E82E4A81C42E5B81D52EF40EFC1431F077
:1004A000F60181916F010E94E701F8CFC8010E9417
:1004B0000C028E2D0F900F900F90DF91CF911F9116
:1004C0000F91FF90EF90DF90CF900895EF92FF9201
:1004D0001F93CF93DF9300D0CDB7DEB77C014A8363
:1004E00069830E9409026981862F8F7180620E9450
:1004F000E701182F4A81842F0E94E701C7010E945B
:100500000C02812F0F900F90DF91CF911F91FF90E0
:10051000EF900895AF92BF92DF92EF92FF920F9308
:100520001F93CF93DF9300D01F92CDB7DEB78C011E
:10053000FC01E580F42EE41608F4FE2CF801868117
:10054000811102C0EF1801C0E12CC80129836A8320
:100550007B830E9409022981822F0E94E701D82E05
:100560006A81A62E7B81B72EF60EFA1431F0F501C2
:1005700081915F010E94E701F8CFEE2029F080E031
:100580000E94E701EA94F9CFC8010E940C028D2D68
:100590000F900F900F90DF91CF911F910F91FF90CF
:1005A000EF90DF90BF90AF900895AF92BF92DF922F
:1005B000EF92FF920F931F93CF93DF9300D0CDB7AD
:1005C000DEB78C01FC01E580F42EE41608F4FE2C65
:1005D000F8018681811102C0EF1801C0E12CC80129
:1005E00069837A830E94090281E60E94E701D82E7E
:1005F0006981A62E7A81B72EF60EFA1439F08FEFA4
:100600000E94E701F50181935F01F7CFEE2029F009
:100610008FEF0E94E701EA94F9CFC8010E940C0213
:100620008D2D0F900F90DF91CF911F910F91FF9023
:10063000EF90DF90BF90AF900895EF92FF921F93DD
:10064000CF93DF931F92CDB7DEB77C0169830E9401
:1006500009026981862F0E94E701182FC7010E94B5
:100660000C02812F0F90DF91CF911F91FF90EF909F
:10067000089562EE0C941D0361EE0C941D036FEF60
:100680000C941D03FC0160834183148280E2858306
:10069000168285E0848717820895462F6E3708F00A
:1006A0004DE765E00C946602CF93DF93EC0160E0C8
:1006B0000E9402028D859E850E9476066DE1CE0124
:1006C0000E940F0281FF07C08D859E850E947606DD
:1006D000CE010E943C0360E0CE010E940F02482F31
:1006E0004E7F60E0CE010E94660262E0CE010E9471
:1006F0000F02E4E7F0E0E49121E030E001C0220FD6
:10070000EA95EAF7822B482F62E0CE01DF91CF9184
:100710000C946602CF93DF93EC0160E00E940F021D
:1007200081FD0EC0482F426060E0CE010E9466024B
:1007300065E070E080E090E0DF91CF910C943C06A2
:10074000DF91CF9108950F93CF93DF93EC01222394
:1007500011F020EB01C020EACE010E948A020023A2
:1007600039F061E0CE01DF91CF910F910C9402023C
:10077000DF91CF910F9108950F93CF93DF93EC0109
:1007800001E00E94A303CE010E943F038073D9F3CE
:1007900060E0CE010E94020240E767E0CE010E94C5
:1007A000660284FF05C0CE010E943C0380E001C0C8
:1007B00081E0DF91CF910F91089520E00C94BC036C
:1007C0000F931F93CF93DF938C01EB0167E10E949E
:1007D0000F0280FD0BC0209759F0C8010E943F0313
:1007E00090E0959587958770888302C080E001C06E
:1007F00081E0DF91CF911F910F91089560E070E04B
:100800000C94E003CF93DF93EC010E94D50240E704
:1008100067E0CE01DF91CF910C946602EF92FF92D8
:100820000F931F93CF93DF93CDB7DEB728970FB603
:10083000F894DEBF0FBECDBF7C0109831A832B83E2
:100840003C834D835E836F837887FC012485AE01F2
:100850004F5F5F4F6AE00E942F02F7012485AE01CF
:100860004F5F5F4F60E1C7010E942F02F701458192
:1008700061E1C7010E94660228960FB6F894DEBFB8
:100880000FBECDBFDF91CF911F910F91FF90EF90E1
:100890000895BF92CF92DF92EF92FF920F931F9332
:1008A000CF93DF93CDB7DEB728970FB6F894DEBFAE
:1008B0000FBECDBF6C01B62EE982FA820B831C837A
:1008C0002D833E834F83588761110AC0FC01448504
:1008D00050E0BE016F5F7F4F07960E94750A07C008
:1008E000F6E0F61708F436C081E0681308C0EB2D77
:1008F000F0E0E259FF4F6491F601248506C0E62F2F
:10090000F0E0E259FF4F649121E0AE014F5F5F4F8D
:10091000C6010E942F020B2D10E0F801E859FF4F8D
:100920006491F6014581C6010E94660262E0C6013B
:100930000E940F02F801EC58FF4F049121E030E0D3
:1009400001C0220F0A95EAF7822B482F62E0C60108
:100950000E94660228960FB6F894DEBF0FBECDBF88
:10096000DF91CF911F910F91FF90EF90DF90CF908B
:10097000BF9008951F93CF93DF93EC01162F62E091
:100980000E940F02E12FF0E0EC58FF4FE49141E0AC
:1009900050E001C0440FEA95EAF74095482362E031
:1009A000CE01DF91CF911F910C946602CF93DF931C
:1009B000EC010E948A0360E0CE010E940F02482FE2
:1009C000416060E0CE010E94660240E767E0CE0130
:1009D0000E94660261E0CE010E9402028F8188239C
:1009E00049F02C85AE01495F5F4F6AE0CE010E945D
:1009F0002F0204C060E0CE010E94BA046DE1CE0176
:100A00000E940F0281FF05C0CE01DF91CF910C94AF
:100A10003C03DF91CF910895CF93DF93EC010E94C7
:100A2000090280E50E94E70183E70E94E701CE0109
:100A3000DF91CF910C940C02EF92FF920F931F93D2
:100A4000CF93DF931F92CDB7DEB77C018B0166E0B9
:100A50000E940F02582F577D0230110531F4506269
:100A60000BE910E020E030E00DC00130110529F065
:100A700005E510E020E030E005C0586001E410E03A
:100A800020E030E0F701058716872787308B452F58
:100A900066E0C70159830E94660266E0C7010E94B2
:100AA0000F0291E05981851390E0892F0F90DF911B
:100AB000CF911F910F91FF90EF9008951F93CF93C7
:100AC000DF93EC0188819981891719F061E00E9418
:100AD000E50689819881981719F061E00E94E50682
:100AE0000E94B10160E0CE010E94020261E0CE01ED
:100AF0000E94EE0165E070E080E090E00E943C061C
:100B00004CE060E0CE010E9466024FE564E0CE0159
:100B10000E94660262E070E0CE010E941C058823FC
:100B200011F081E08C8366E0CE010E940F02182F45
:100B300060E070E0CE010E941C05CE010E940C0511
:100B400040E06DE1CE010E94660240E06CE1CE0122
:100B50000E94660240E767E0CE010E9466026CE4F4
:100B6000CE010E944D03CE010E943903CE010E94A6
:100B70003C03CE010E948A0360E0CE010E940F0276
:100B8000482F4E7F60E0CE010E946602115081E046
:100B90001E3F08F080E0DF91CF911F9108951F92D2
:100BA0000F920FB60F9211242F933F938F939F9321
:100BB000AF93BF9380914C0190914D01A0914E0154
:100BC000B0914F0130914B0123E0230F2D3720F4DA
:100BD0000196A11DB11D05C026E8230F0296A11D97
:100BE000B11D20934B0180934C0190934D01A09334
:100BF0004E01B0934F018091500190915101A0910D
:100C00005201B09153010196A11DB11D8093500175
:100C100090935101A0935201B0935301BF91AF91B2
:100C20009F918F913F912F910F900FBE0F901F902A
:100C300018953FB7F8948091500190915101A0917F
:100C40005201B091530126B5A89B05C02F3F19F062
:100C50000196A11DB11D3FBF6627782F892F9A2FBE
:100C6000620F711D811D911D42E0660F771F881F65
:100C7000991F4A95D1F708958F929F92AF92BF9294
:100C8000CF92DF92EF92FF926B017C010E941906D6
:100C90004B015C01C114D104E104F104F1F00E94A4
:100CA0004C0A0E941906681979098A099B09683E4D
:100CB00073408105910570F321E0C21AD108E10863
:100CC000F10888EE880E83E0981EA11CB11CC114A7
:100CD000D104E104F10429F7DDCFFF90EF90DF901C
:100CE000CF90BF90AF909F908F90089582309105E4
:100CF00038F0880F991F880F991F05970197F1F712
:100D00000895789484B5826084BD84B5816084BD83
:100D100085B5826085BD85B5816085BDEEE6F0E074
:100D2000808181608083E1E8F0E0108280818260D0
:100D30008083808181608083E0E8F0E08081816051
:100D40008083E1EBF0E0808184608083E0EBF0E081
:100D5000808181608083EAE7F0E080818460808325
:100D600080818260808380818160808380818068CF
:100D700080831092C1000895833081F028F481307F
:100D800099F08230A1F008958730A9F08830B9F049
:100D90008430D1F4809180008F7D03C080918000E9
:100DA0008F7780938000089584B58F7702C084B5D3
:100DB0008F7D84BD08958091B0008F7703C08091AE
:100DC000B0008F7D8093B0000895CF93DF9390E0C3
:100DD000FC01E257FF4F2491FC01EE55FF4F849137
:100DE000882349F190E0880F991FFC01E054FF4FE0
:100DF000A591B4918A549F4FFC01C591D4919FB79E
:100E0000611108C0F8948C91209582238C9388817D
:100E100082230AC0623051F4F8948C91322F3095BD
:100E200083238C938881822B888304C0F8948C91CF
:100E3000822B8C939FBFDF91CF9108950F931F93C7
:100E4000CF93DF931F92CDB7DEB7282F30E0F901A3
:100E5000E658FF4F8491F901E257FF4F1491F901D1
:100E6000EE55FF4F04910023C9F0882321F06983D8
:100E70000E94BC066981E02FF0E0EE0FFF1FEA54EC
:100E8000FF4FA591B4919FB7F8948C91611103C065
:100E90001095812301C0812B8C939FBF0F90DF9110
:100EA000CF911F910F910895FC01818D228D90E0CB
:100EB000805C9F4F821B91098F7399270895FC01D5
:100EC000918D828D981731F0828DE80FF11D858DFF
:100ED00090E008958FEF9FEF0895FC01918D828D32
:100EE000981761F0828DDF01A80FB11D5D968C917E
:100EF000928D9F5F9F73928F90E008958FEF9FEF89
:100F0000089581EF98E0892B49F080E090E0892BEB
:100F100029F00E94F10881110C9400000895FC0151
:100F2000848DDF01A80FB11DA35ABF4F2C91848D72
:100F300090E001968F739927848FA689B7892C93A7
:100F4000A089B1898C9180648C93938D848D981342
:100F500006C00288F389E02D80818F7D808308950B
:100F6000CF93DF93EC01888D8823C9F0EA89FB8950
:100F7000808185FD05C0A889B9898C9186FD0FC047
:100F80000FB607FCF5CF808185FFF2CFA889B9891C
:100F90008C9185FFEDCFCE010E948F07E7CFDF91C7
:100FA000CF910895CF92DF92FF920F931F93CF932B
:100FB000DF931F92CDB7DEB76C0181E0D601589662
:100FC0008C9358975B969C915B975C968C915C9701
:100FD000981307C05096ED91FC915197808185FD43
:100FE0002EC0F601038D10E00F5F1F4F0F73112706
:100FF000F02EF601848DF81211C00FB607FCF9CF60
:10100000D6015096ED91FC915197808185FFF1CFEB
:10101000C60169830E948F076981EBCF838DE80F3A
:10102000F11DE35AFF4F6083D6015B960C935B97EB
:101030005296ED91FC915397808180620CC0D6014D
:101040005696ED91FC91579760835096ED91FC91E7
:10105000519780818064808381E090E00F90DF91E0
:10106000CF911F910F91FF90DF90CF900895BF9285
:10107000CF92DF92EF92FF92CF93DF93EC016A0160
:101080007B01B22EE889F98982E08083411581EEE7
:10109000580761057105A1F060E079E08DE390E00B
:1010A000A70196010E944D0A2150310941095109B9
:1010B0005695479537952795211580E1380798F083
:1010C000E889F989108260E874E88EE190E0A70170
:1010D00096010E944D0A2150310941095109569546
:1010E000479537952795EC85FD853083EE85FF85FF
:1010F0002083188EEC89FD89B082EA89FB89808182
:1011000080618083EA89FB89808188608083EA89A5
:10111000FB89808180688083EA89FB8980818F7D5B
:101120008083DF91CF91FF90EF90DF90CF90BF90C1
:1011300008951F920F920FB60F9211242F938F9341
:101140009F93EF93FF93E0916401F091650180819B
:10115000E0916A01F0916B0182FD12C09081809153
:101160006D018F5F8F7320916E01821751F0E091B6
:101170006D01F0E0EC5AFE4F958F80936D0101C038
:101180008081FF91EF919F918F912F910F900FBED2
:101190000F901F9018951F920F920FB60F92112467
:1011A0002F933F934F935F936F937F938F939F936F
:1011B000AF93BF93EF93FF9384E591E00E948F0775
:1011C000FF91EF91BF91AF919F918F917F916F911F
:1011D0005F914F913F912F910F900FBE0F901F90F5
:1011E000189584E591E00E94540721E0892B09F4C9
:1011F00020E0822F0895109257011092560188EE38
:1012000093E0A0E0B0E08093580190935901A0933F
:101210005A01B0935B0181E191E090935501809375
:10122000540185EC90E0909361018093600184EC1F
:1012300090E0909363018093620180EC90E0909342
:1012400065018093640181EC90E090936701809345
:10125000660182EC90E0909369018093680186ECCE
:1012600090E090936B0180936A0110926D0110924F
:101270006E0110926F01109270010895CF92DF926B
:10128000EF92FF920F931F93CF93DF937C016A013C
:10129000EB0100E010E00C151D0571F06991D7011C
:1012A000ED91FC910190F081E02DC7010995892B0A
:1012B00019F00F5F1F4FEFCFC801DF91CF911F9142
:1012C0000F91FF90EF90DF90CF9008956115710519
:1012D00081F0DB010D900020E9F7AD01415051098B
:1012E000461B570BDC01ED91FC910280F381E02D50
:1012F000099480E090E008950C946609DC01ED917A
:10130000FC910190F081E02D09946DE171E00C9465
:1013100066090F931F93CF93DF93EC010E94660938
:101320008C01CE010E948509800F911FDF91CF9122
:101330001F910F9108958F929F92AF92BF92DF926B
:10134000EF92FF920F931F93CF93DF93CDB7DEB74A
:10135000A1970FB6F894DEBF0FBECDBF7C01F42F6E
:10136000D52ECB0119A2223008F42AE08E010F5DA0
:101370001F4F822E912CA12CB12C6F2F7D2DA501FA
:1013800094010E944D0AF22FD32ECA010150110977
:101390006A3014F4E0E301C0E7E3E60FD801EC9310
:1013A000232B242B252B49F7B801C7010E9466097E
:1013B000A1960FB6F894DEBF0FBECDBFDF91CF91DF
:1013C0001F910F91FF90EF90DF90BF90AF909F9093
:1013D0008F900895CF92DF92EF92FF920F931F9319
:1013E000CF93DF93EC016A017B012115310579F47C
:1013F000E881F9810190F081E02D642FDF91CF9198
:101400001F910F91FF90EF90DF90CF9009942A30B9
:101410003105E9F477FF1AC06DE20E947E098C0164
:1014200044275527BA014C195D096E097F092AE046
:10143000CE010E949B09800F911FDF91CF911F91D8
:101440000F91FF90EF90DF90CF9008952AE0B701C1
:10145000A601CE01DF91CF911F910F91FF90EF90E8
:10146000DF90CF900C949B099A01AB01662757FD42
:101470006095762F0C94EA0908950E9481060E94D7
:101480003C0A0E949100C1E8D7E00E94BF0020976B
:10149000E1F30E948107F9CF0895A1E21A2EAA1B59
:1014A000BB1BFD010DC0AA1FBB1FEE1FFF1FA21714
:1014B000B307E407F50720F0A21BB30BE40BF50B11
:1014C000661F771F881F991F1A9469F7609570959A
:1014D000809590959B01AC01BD01CF010895EE0F61
:1014E000FF1F0590F491E02D0994FB01DC0102C07F
:1014F00001900D9241505040D8F70895F894FFCFD5
:101500003A300041747561646F723A200000000047
:1015100000D2073E0954076D075F07B0070D0A00A8
:0E1520006E616E00696E66006F7666002E00CA
:00000001FF
