:100000000C9462000C948A000C948A000C948A0070
:100010000C948A000C948A000C948A000C948A0038
:100020000C948A000C948A000C948A000C9432047C
:100030000C948A000C948A000C948A000C948A0018
:100040000C94B2040C948A000C945A070C948C07FC
:100050000C948A000C948A000C948A000C948A00F8
:100060000C948A000C948A00000000080002010031
:100070000003040700000000000000000102040863
:100080001020408001020408102001020408102002
:10009000040404040404040402020202020203032E
:1000A00003030303000000002300260029000000D2
:1000B0000000250028002B0000000000240027007D
:1000C0002A00BC0711241FBECFEFD8E0DEBFCDBF92
:1000D00011E0A0E0B1E0EEE3F7E102C005900D927F
:1000E000A23AB107D9F722E0A2EAB1E001C01D921D
:1000F000AE38B207E1F710E0C4ECD0E004C02297BC
:10010000FE010E944C0BC23CD107C9F70E94550961
:100110000C949D0B0C94000026E040E855E260E052
:1001200070E081EF91E00E94F80687E00E94C6012E
:1001300088E00E94C90180ED97E00E946F0261E0B3
:100140008BE00E947D050C946103FC01019000206E
:10015000E9F7BF0161507109681B790B0E947003B8
:100160000C946B03AF92BF92CF92DF92EF92FF920B
:100170000F931F93CF93DF93CDB7DEB76F970FB673
:10018000F894DEBF0FBECDBF1092A7011092A6015A
:100190008EE18F8FBE01615E7F4FCE0101960E947E
:1001A0001104882309F46BC0AF8DB0E06B8170E05F
:1001B000605371094091A2015091A30180E090E049
:1001C00020E030E08D0101501109EAE0DE2E2A170F
:1001D0003B076CF541E050E0E0E0F0E07801E21A26
:1001E000F30AEE15FF0544F431965A01DA9CA0019A
:1001F000DB9C500D1124F5CF2230310599F0E1E060
:10020000F0E0EC0FFD1FE20FF31FE081F0E0F0974C
:10021000E49F7001E59FF00CF49FF00C11248E0D0B
:100220009F1D02C0860F971F2F5F3F4FD0CF509367
:10023000A3014093A2019093A5018093A4010B9781
:1002400054F08BE00E94EC0561E0892B09F060E03E
:100250008BE00E94B6056AE571E081EF91E00E94B3
:100260003D086091A4017091A5014AE050E081EF42
:1002700091E00E94F50881EF91E00E9446088EE02F
:100280000E943705BC01882777FD8095982F1F9223
:100290001F921F9224E62F93A12CB12C6501EE240E
:1002A000EA9413E0F12E00E010E020E030E0A90134
:1002B0000E940D09DC01CB019093A9018093A80154
:1002C0004AE06AEA71E00E94680B65E671E081EF3E
:1002D00091E00E943D086AEA71E081EF91E00E949E
:1002E0004A088AEA91E00E94A5000F900F900F90B3
:1002F0000F906F960FB6F894DEBF0FBECDBFDF91A3
:10030000CF911F910F91FF90EF90DF90CF90BF9012
:10031000AF900895682780E1689F900111246227BB
:1003200070E0362F2227492F50E0242B352BCB01AC
:10033000F4E095958795FA95E1F728273927CB01C1
:10034000A3E0880F991FAA95E1F7822793270895C4
:100350001F93CF93DF93162FEC018FEF9FEF115078
:1003600020F069910E948A01FACFDF91CF911F910D
:100370000895E0E7F1E090E02191821729F09F5F76
:100380009031D1F780E00895892F0895809304017A
:1003900008958093050108951F93CF93DF93909163
:1003A000DF01992329F08091DC018F5F8093DC01CC
:1003B0002091DE018091DD01921759F0803510F413
:1003C0002BE001C02DE1820F8093DD019093DE01CF
:1003D00003C08C5E8093DD012091DD01203A08F49A
:1003E0007AC08091D7019091D80196958795909386
:1003F000D8018093D7013091DC01353028F0986026
:100400009093D8018093D701205A2093DD01109258
:10041000DC018091DB01882309F44DC08091D60175
:100420008F5F8093D6018C3008F455C0C091D701FE
:10043000D091D8018C2F8F730E94B901182FCE0153
:10044000C6E096958795CA95E1F70E94B90190E1BB
:10045000199F90011124822B9091B60191110EC029
:100460008093B7019CEF980F9B3140F01092DB0115
:100470008091B5018F5F8093B5012DC0E091B601E9
:1004800091E09E0F9093B601F0E0E854FE4F808318
:100490009091B6018091B701981750F01092DB014E
:1004A0008091B4018F5F8093B40181E08093DA0181
:1004B0001092D60110C08091D7019091D801883355
:1004C0009B4049F481E08093DB011092D6011092A9
:1004D000B6011092DA01DF91CF911F9108954F92EA
:1004E0005F926F927F92BF92CF92DF92EF92FF92D4
:1004F0000F931F93CF93DF93CDB7DEB72E970FB631
:10050000F894DEBF0FBECDBFBC018EE0ECE4F1E09D
:10051000DE01119601900D928A95E1F76115710542
:1005200009F49AC080E090E00E94FD099B01AC01B3
:1005300060E070E080E89FE30E94640920E030E022
:1005400040E05EE30E948B0A6B017C018E010D5F2F
:100550001F4FBB24B394F801619171918F0180E02A
:1005600090E00E94FD099B01AC0160E074E284E729
:100570009BE40E9464099B01AC0160E070E080E8AC
:100580009FE30E9464099B01AC01C701B6010E9470
:1005900064090E94CC092B013C01F2E04F1A51087A
:1005A000610871082DEF42162FEF520661047104A5
:1005B00028F0B394E7E0BE12CECF05C0F6E0BF1638
:1005C00009F44AC00CC0623071058105910508F438
:1005D00043C06115710521E082079105E8F5BB2054
:1005E000D9F11092800028E02093810020918100B1
:1005F0002B2920938100709389006093880080915B
:100600006F00826080936F0061E0809104010E941E
:100610007D0560E0809105010E947D0561E080918B
:1006200006010E947D056091E001809106012E96F1
:100630000FB6F894DEBF0FBECDBFDF91CF911F91F3
:100640000F91FF90EF90DF90CF90BF907F906F90D1
:100650005F904F900C94B6052E960FB6F894DEBFBF
:100660000FBECDBFDF91CF911F910F91FF90EF9003
:10067000DF90CF90BF907F906F905F904F900895E4
:10068000CF931092E6011092E5011092E40160917F
:10069000E001C1E06C27809106010E94B605C0937D
:1006A000E301CF9108956091E001809106010E94DD
:1006B000B60560E0809104010E94B6051092E30146
:1006C00008958091D901811105C081E08093D901FD
:1006D0001092DB0108958091E3018111FCCF089510
:1006E000BF92CF92DF92EF92FF920F931F93CF931F
:1006F000DF93F82EE92ED62E8BE1861708F486C0FC
:100700000E946B03C3E0CD0D6C2F8FEF9FEF0E9413
:100710008A01AC2FB0E044E0B595A7954A95E1F782
:10072000A059BE4F2C9120930F01CF70EC2FF0E019
:10073000E059FE4F2081209310010FE011E0BF2C03
:10074000CF2DDE2D0E5F1F4F2C2F2B192D15D8F41A
:100750007E01C9906C2D0E948A01AC2DB0E034E07E
:10076000B595A7953A95E1F7A059BE4F2C91D801C0
:100770002C93D701EC91EF70F0E0E059FE4F20810F
:10078000F8012183DFCF61E06D0D660F80959095B4
:10079000E62FF0E0E15FFE4FDC0114E0B695A7958F
:1007A0001A95E1F7AF70BB27A059BE4F2C9120835B
:1007B000E1E0E60FF0E0E15FFE4FDC01AF70BB2748
:1007C000A059BE4F2C912083E2E0E60FF0E0E15FFC
:1007D000FE4FDC01AB2FBB27A295AF70A059BE4FD7
:1007E0002C912083A3E0A60FB0E0A15FBE4FE92FBC
:1007F000FF27EF70FF27E059FE4F80818C93645FE5
:100800006093E7010E94400381E001C080E0DF9136
:10081000CF911F910F91FF90EF90DF90CF90BF90FD
:100820000895FB012091DA012223C9F02091B6013D
:1008300023503081231708F42083408150E069EB76
:1008400071E00E945F0B1092DA016091B60188EBB3
:1008500091E00E94A80121E0883B904F09F020E040
:10086000822F08951F920F920FB60F9211242F938B
:100870003F934F935F936F937F938F939F93AF9328
:10088000BF93EF93FF938091D901882321F080914A
:10089000E301882371F18091E3018823C9F08091FD
:1008A000E40191E0980F9093E401811111C0E0916F
:1008B000E6018091E701E81718F10E945303809147
:1008C000E1019091E20101969093E2018093E101B0
:1008D0008091E401883010F01092E4018091D901F8
:1008E000882379F18091E30181112BC00E94CC0112
:1008F00028C0809105010E94EC058093DF01CBCFD9
:10090000F0E0E95FFE4F60812091E50181E0820F18
:100910008093E50181E090E001C0880F2A95EAF715
:100920006823809104010E94B6058091E50186301C
:1009300078F21092E5018091E6018F5F8093E601E5
:10094000C7CFFF91EF91BF91AF919F918F917F9111
:100950006F915F914F913F912F910F900FBE0F902C
:100960001F9018951F920F920FB60F9211242F937C
:100970003F938F939F93AF93BF938091E9019091A1
:10098000EA01A091EB01B091EC013091E80123E084
:10099000230F2D3720F40196A11DB11D05C026E8B7
:1009A000230F0296A11DB11D2093E8018093E90158
:1009B0009093EA01A093EB01B093EC018091ED01DB
:1009C0009091EE01A091EF01B091F0010196A11D6F
:1009D000B11D8093ED019093EE01A093EF01B093D0
:1009E000F001BF91AF919F918F913F912F910F9007
:1009F0000FBE0F901F901895789484B5826084BDC7
:100A000084B5816084BD85B5826085BD85B5816012
:100A100085BDEEE6F0E0808181608083E1E8F0E072
:100A20001082808182608083808181608083E0E8A1
:100A3000F0E0808181608083E1EBF0E08081846080
:100A40008083E0EBF0E0808181608083EAE7F0E082
:100A500080818460808380818260808380818160E6
:100A600080838081806880831092C10008958E30D9
:100A700008F08E50877020914B0190E4299F9001DF
:100A80001124822B80937C0080917A008064809373
:100A90007A0080917A0086FDFCCF809178002091C9
:100AA000790090E0922B0895833081F028F4813012
:100AB00099F08230A1F008958730A9F08830B9F01C
:100AC0008430D1F4809180008F7D03C080918000BC
:100AD0008F7780938000089584B58F7702C084B5A6
:100AE0008F7D84BD08958091B0008F7703C0809181
:100AF000B0008F7D8093B0000895CF93DF9390E096
:100B0000FC01E458FF4F2491FC01E057FF4F849112
:100B1000882349F190E0880F991FFC01E854FF4FAA
:100B2000A591B49182559F4FFC01C591D4919FB777
:100B3000611108C0F8948C91209582238C93888150
:100B400082230AC0623051F4F8948C91322F309590
:100B500083238C938881822B888304C0F8948C91A2
:100B6000822B8C939FBFDF91CF9108950F931F939A
:100B7000CF93DF931F92CDB7DEB7282F30E0F90176
:100B8000E859FF4F8491F901E458FF4F1491F9019E
:100B9000E057FF4F04910023C9F0882321F06983B7
:100BA0000E9454056981E02FF0E0EE0FFF1FE2552F
:100BB000FF4FA591B4919FB7F8948C91611103C038
:100BC0001095812301C0812B8C939FBF0F90DF91E3
:100BD000CF911F910F910895CF93DF93282F30E08D
:100BE000F901E859FF4F8491F901E458FF4FD4917E
:100BF000F901E057FF4FC491CC2391F081110E947D
:100C00005405EC2FF0E0EE0FFF1FEC55FF4FA591C0
:100C1000B4912C912D2381E090E021F480E002C07A
:100C200080E090E0DF91CF910895FC01818D228DCD
:100C300090E0805C9F4F821B91098F7399270895E4
:100C4000FC01918D828D981731F0828DE80FF11D96
:100C5000858D90E008958FEF9FEF0895FC01918DB1
:100C6000828D981761F0828DDF01A80FB11D5D960E
:100C70008C91928D9F5F9F73928F90E008958FEF7C
:100C80009FEF089582EB97E0892B49F080E090E098
:100C9000892B29F00E94B20781110C94000008955D
:100CA000FC01848DDF01A80FB11DA35ABF4F2C9109
:100CB000848D90E001968F739927848FA689B789D8
:100CC0002C93A089B1898C9180648C93938D848DB1
:100CD000981306C00288F389E02D80818F7D808380
:100CE0000895CF93DF93EC01888D8823C9F0EA89BA
:100CF000FB89808185FD05C0A889B9898C9186FD15
:100D00000FC00FB607FCF5CF808185FFF2CFA88911
:100D1000B9898C9185FFEDCFCE010E945006E7CFB7
:100D2000DF91CF910895CF92DF92FF920F931F939F
:100D3000CF93DF931F92CDB7DEB76C0181E0D60170
:100D400058968C9358975B969C915B975C968C9188
:100D50005C97981307C05096ED91FC915197808154
:100D600085FD2EC0F601038D10E00F5F1F4F0F733E
:100D70001127F02EF601848DF81211C00FB607FC72
:100D8000F9CFD6015096ED91FC915197808185FF66
:100D9000F1CFC60169830E9450066981EBCF838D34
:100DA000E80FF11DE35AFF4F6083D6015B960C9369
:100DB0005B975296ED91FC915397808180620CC0B5
:100DC000D6015696ED91FC91579760835096ED9120
:100DD000FC91519780818064808381E090E00F9046
:100DE000DF91CF911F910F91FF90DF90CF900895E9
:100DF000BF92CF92DF92EF92FF92CF93DF93EC01FD
:100E00006A017B01B22EE889F98982E0808341156D
:100E100081EE580761057105A1F060E079E08DE38E
:100E200090E0A70196010E94FE0A21503109410974
:100E300051095695479537952795211580E1380733
:100E400098F0E889F989108260E874E88EE190E012
:100E5000A70196010E94FE0A21503109410951095A
:100E60005695479537952795EC85FD853083EE851A
:100E7000FF852083188EEC89FD89B082EA89FB8981
:100E8000808180618083EA89FB898081886080839A
:100E9000EA89FB89808180688083EA89FB89808177
:100EA0008F7D8083DF91CF91FF90EF90DF90CF9087
:100EB000BF9008951F920F920FB60F9211242F9397
:100EC0008F939F93EF93FF93E0910102F0910202C1
:100ED0008081E0910702F091080282FD12C09081AA
:100EE00080910A028F5F8F7320910B02821751F05D
:100EF000E0910A02F0E0EF50FE4F958F80930A02D6
:100F000001C08081FF91EF919F918F912F910F9060
:100F10000FBE0F901F9018951F920F920FB60F9251
:100F200011242F933F934F935F936F937F938F93EE
:100F30009F93AF93BF93EF93FF9381EF91E00E9454
:100F40005006FF91EF91BF91AF919F918F917F914B
:100F50006F915F914F913F912F910F900FBE0F9026
:100F60001F90189581EF91E00E94150621E0892BD2
:100F700009F420E0822F08951092F4011092F301F9
:100F800088EE93E0A0E0B0E08093F5019093F60145
:100F9000A093F701B093F80184E891E09093F201F7
:100FA0008093F10185EC90E09093FE018093FD0128
:100FB00084EC90E0909300028093FF0180EC90E03D
:100FC000909302028093010281EC90E090930402DE
:100FD0008093030282EC90E09093060280930502D6
:100FE00086EC90E0909308028093070210920A0228
:100FF00010920B0210920C0210920D020895CF92E3
:10100000DF92EF92FF920F931F93CF93DF937C01B8
:101010006A01EB0100E010E00C151D0571F069910B
:10102000D701ED91FC910190F081E02DC701099568
:10103000892B19F00F5F1F4FEFCFC801DF91CF91C0
:101040001F910F91FF90EF90DF90CF900895611561
:10105000710581F0DB010D900020E9F7AD014150F1
:101060005109461B570BDC01ED91FC910280F38185
:10107000E02D099480E090E008950C942708DC01AD
:10108000ED91FC910190F081E02D099460E971E00F
:101090000C9427080F931F93CF93DF93EC010E94CA
:1010A00027088C01CE010E944608800F911FDF9116
:1010B000CF911F910F9108958F929F92AF92BF92FF
:1010C000DF92EF92FF920F931F93CF93DF93CDB7F1
:1010D000DEB7A1970FB6F894DEBF0FBECDBF7C017F
:1010E000F42FD52ECB0119A2223008F42AE08E016C
:1010F0000F5D1F4F822E912CA12CB12C6F2F7D2DB7
:10110000A50194010E94FE0AF22FD32ECA010150BC
:1011100011096A3014F4E0E301C0E7E3E60FD801F7
:10112000EC93232B242B252B49F7B801C7010E94F0
:101130002708A1960FB6F894DEBF0FBECDBFDF9192
:10114000CF911F910F91FF90EF90DF90BF90AF90E4
:101150009F908F900895CF92DF92EF92FF920F931E
:101160001F93CF93DF93EC016A017B0121153105B9
:1011700079F4E881F9810190F081E02D642FDF910D
:10118000CF911F910F91FF90EF90DF90CF90099436
:101190002A303105E9F477FF1AC06DE20E943F085A
:1011A0008C0144275527BA014C195D096E097F0946
:1011B0002AE0CE010E945C08800F911FDF91CF9141
:1011C0001F910F91FF90EF90DF90CF9008952AE04C
:1011D000B701A601CE01DF91CF911F910F91FF9032
:1011E000EF90DF90CF900C945C080F931F93CF93F8
:1011F000DF93EC019A01AB01662757FD6095762FCE
:101200000E94AB088C01CE010E944608800F911FFE
:10121000DF91CF911F910F9108954F925F926F923E
:101220007F92AF92BF92CF92DF92EF92FF920F9395
:101230001F93CF93DF93CDB7DEB729013A01621B2D
:10124000730B840B950B29893A894B895C892A1980
:101250003B094C095D09298B3A8B4B8B5C8B9B01BD
:10126000AC0169897A898B899C890E94EE0AE4180D
:10127000F50806091709A80197010E94200B2A0DFD
:101280003B1D4C1D5D1DCA01B901DF91CF911F911E
:101290000F91FF90EF90DF90CF90BF90AF907F9035
:1012A0006F905F904F90089508950E94FC040E94F3
:1012B00054090E948C00C2E4D6E00E94B20020973C
:1012C000E1F30E944206F9CF0CD0EBC0E3D040F02E
:1012D000DAD030F021F45F3F19F0CCC0511115C1C4
:1012E000CFC0F0D098F39923C9F35523B1F3951BE0
:1012F000550BBB27AA2762177307840738F09F5F37
:101300005F4F220F331F441FAA1FA9F333D00E2EA5
:101310003AF0E0E830D091505040E695001CCAF712
:1013200029D0FE2F27D0660F771F881FBB1F2617D7
:1013300037074807AB07B0E809F0BB0B802DBF01AA
:10134000FF2793585F4F2AF09E3F510568F092C0E7
:10135000DCC05F3FECF3983EDCF3869577956795AC
:10136000B795F7959F5FC9F7880F911D969587955B
:1013700097F90895E1E0660F771F881FBB1F62177A
:1013800073078407BA0720F0621B730B840BBA0B38
:10139000EE1F88F7E095089504D06894B111B5C0A8
:1013A000089598D088F09F5790F0B92F9927B7519A
:1013B000A0F0D1F0660F771F881F991F1AF0BA9519
:1013C000C9F712C0B13081F09FD0B1E008959CC040
:1013D000672F782F8827B85F39F0B93FCCF386950F
:1013E00077956795B395D9F73EF49095809570956C
:1013F00061957F4F8F4F9F4F0895E89409C097FBE9
:101400003EF490958095709561957F4F8F4F9F4FDB
:101410009923A9F0F92F96E9BB279395F69587951F
:1014200077956795B795F111F8CFFAF4BB0F11F4E2
:1014300060FF1BC06F5F7F4F8F4F9F4F16C0882389
:1014400011F096E911C0772321F09EE8872F762FBF
:1014500005C0662371F096E8862F70E060E02AF000
:101460009A95660F771F881FDAF7880F96958795EC
:1014700097F9089597F99F6780E870E060E0089514
:101480009FEF80EC089500240A941616170618069C
:101490000906089500240A94121613061406050678
:1014A0000895092E0394000C11F4882352F0BB0F09
:1014B00040F4BF2B11F460FF04C06F5F7F4F8F4F6C
:1014C0009F4F089557FD9058440F551F59F05F3FA7
:1014D00071F04795880F97FB991F61F09F3F79F056
:1014E00087950895121613061406551FF2CF4695D8
:1014F000F1DF08C0161617061806991FF1CF86955A
:101500007105610508940895E894BB27662777273D
:10151000CB0197F908950BD0C4CFB5DF28F0BADF1F
:1015200018F0952309F0A6CFABCF1124EECFCADF78
:10153000A0F3959FD1F3950F50E0551F629FF001E6
:10154000729FBB27F00DB11D639FAA27F00DB11D3F
:10155000AA1F649F6627B00DA11D661F829F2227C8
:10156000B00DA11D621F739FB00DA11D621F839F4F
:10157000A00D611D221F749F3327A00D611D231F25
:10158000849F600D211D822F762F6A2F11249F5773
:1015900050408AF0E1F088234AF0EE0FFF1FBB1F96
:1015A000661F771F881F91505040A9F79E3F510535
:1015B00070F060CFAACF5F3FECF3983EDCF38695E6
:1015C00077956795B795F795E7959F5FC1F7FE2BE0
:1015D000880F911D9695879597F90895DB018F9354
:1015E0009F930E943F0BBF91AF91A29F800D911DD1
:1015F000A39F900DB29F900D11240895A1E21A2E81
:10160000AA1BBB1BFD010DC0AA1FBB1FEE1FFF1FA6
:10161000A217B307E407F50720F0A21BB30BE40BF6
:10162000F50B661F771F881F991F1A9469F760953D
:101630007095809590959B01AC01BD01CF010895F7
:10164000052E97FB1EF400940E94370B57FD07D020
:101650000E94FE0A07FC03D04EF40C94370B509501
:101660004095309521953F4F4F4F5F4F089590958E
:101670008095709561957F4F8F4F9F4F08950E9481
:10168000500BA59F900DB49F900DA49F800D911DB0
:1016900011240895EE0FFF1F0590F491E02D099499
:1016A000A29FB001B39FC001A39F700D811D1124A3
:1016B000911DB29F700D811D1124911D0895FB0194
:1016C000DC0102C001900D9241505040D8F70895BE
:1016D000BB274A3031F4992322F4BDE290958195DD
:1016E0009F4F0C94740BBB27FB015527AA27880F2B
:1016F000991FAA1FA41710F0A41B83955051B9F786
:10170000A05DAA3308F0A95DA193009779F7B11104
:10171000B1931192CB010C948D0BDC01FC01672F6E
:1017200071917723E1F7329704C07C916D937083B8
:0E1730006291AE17BF07C8F30895F894FFCF7B
:10173E00010000000C0B0A2A2A2A2A2A2A382C0019
:10174E00000000000000000000000000000000008B
:10175E00000000000000000000000000000000007B
:10176E00000000000000000000000000000000006B
:10177E000000000000000000000000010000010059
:10178E000800400000010004050D526563656269A2
:10179E00646F3A2000456E7669616E646F3A200080
:1017AE000D0E131516191A1C232526292A2C323430
:1017BE00000000009306FF0715062E062006710690
:1017CE000D0A006E616E00696E66006F7666002E01
:0217DE00000009
:107E0000112484B714BE81FFF0D085E080938100F7
:107E100082E08093C00088E18093C10086E0809377
:107E2000C20080E18093C4008EE0C9D0259A86E02C
:107E300020E33CEF91E0309385002093840096BBD3
:107E4000B09BFECF1D9AA8958150A9F7CC24DD24C4
:107E500088248394B5E0AB2EA1E19A2EF3E0BF2EE7
:107E6000A2D0813461F49FD0082FAFD0023811F036
:107E7000013811F484E001C083E08DD089C08234E0
:107E800011F484E103C0853419F485E0A6D080C0E4
:107E9000853579F488D0E82EFF2485D0082F10E0AE
:107EA000102F00270E291F29000F111F8ED06801E7
:107EB0006FC0863521F484E090D080E0DECF843638
:107EC00009F040C070D06FD0082F6DD080E0C81688
:107ED00080E7D80618F4F601B7BEE895C0E0D1E017
:107EE00062D089930C17E1F7F0E0CF16F0E7DF06D8
:107EF00018F0F601B7BEE89568D007B600FCFDCFD4
:107F0000A601A0E0B1E02C9130E011968C91119780
:107F100090E0982F8827822B932B1296FA010C0160
:107F200087BEE89511244E5F5F4FF1E0A038BF0790
:107F300051F7F601A7BEE89507B600FCFDCF97BE46
:107F4000E89526C08437B1F42ED02DD0F82E2BD052
:107F50003CD0F601EF2C8F010F5F1F4F84911BD097
:107F6000EA94F801C1F70894C11CD11CFA94CF0C13
:107F7000D11C0EC0853739F428D08EE10CD085E9AC
:107F80000AD08FE07ACF813511F488E018D01DD067
:107F900080E101D065CF982F8091C00085FFFCCF94
:107FA0009093C60008958091C00087FFFCCF809118
:107FB000C00084FD01C0A8958091C6000895E0E648
:107FC000F0E098E1908380830895EDDF803219F02E
:107FD00088E0F5DFFFCF84E1DECF1F93182FE3DFCA
:107FE0001150E9F7F2DF1F91089580E0E8DFEE27F6
:047FF000FF270994CA
:027FFE00040479
:0400000300007E007B
:00000001FF
