:1000000014C1000043C1000041C100003FC1000015
:100010003DC100003BC1000039C1000037C10000F4
:1000200035C1000033C1000031C100002FC1000004
:100030002DC100002BC1000029C1000027C1000014
:1000400025C100009CC4000021C100001FC10000A8
:100050001DC100001BC1000019C1000010C5000037
:1000600015C100000C94C2080C94F8080FC10000E0
:100070000DC100000BC1000009C1000007C1000054
:1000800005C1000003C1000001C10000FFC0000065
:10009000FDC00000FBC00000F9C00000F7C0000078
:1000A000F5C00000F3C00000F1C00000EFC0000088
:1000B000EDC00000EBC00000E9C00000E7C0000098
:1000C000E5C00000E3C00000E1C00000DFC00000A8
:1000D000DDC00000DBC00000D9C00000D7C00000B8
:1000E000D5C0000082068506740678067E06BC062A
:1000F00089068D06930697069B06A106A506A90606
:10010000BC06AF06B306B70600000A0B02090C0DC9
:100110000E080703040100000000000000000000BA
:1001200000000000000000000000000000000000CF
:10013000000000001211100000000000000000008C
:1001400000000000000000000000000000000102AC
:1001500010202008081020401020408002010201D9
:100160000804020101020408102040808040201091
:1001700008040201800402018040201008040201EA
:100180000804020101020408102040800102040852
:10019000102040800505050507050808080802022B
:1001A00002020A0A08080404040401010101010111
:1001B00001010303030303030303040707070C0CF4
:1001C0000C0C0C0C0C0C02020202060606060606BB
:1001D00006060B0B0B0B0B0B0B0B00002000230078
:1001E000260029002C002F0032000001000003012E
:1001F0000601090100002200250028002B002E0026
:100200003100340002010000050108010B0100006B
:100210002100240027002A002D00300033000101B6
:100220000000040107010A012A0911241FBECFEFB3
:10023000D1E2DEBFCDBF00E00CBF12E0A0E0B2E033
:10024000E6EFF9E100E00BBF02C007900D92A23A81
:10025000B107D9F723E0A2EAB2E001C01D92AE389F
:10026000B207E1F712E0CAE2D2E000E006C022974E
:100270000109FE010BBF0E94AA0CC832D10780E021
:100280000807A9F70E94B60A0C94F90CB9CE26E02B
:1002900040E855E260E070E081EF92E013D788E03B
:1002A0001FD187E020D180ED97E0C1D161E08BE0E4
:1002B00064C5FC0101900020E9F7BF01615071099C
:1002C000681B790B9FD299C2AF92BF92CF92DF92F7
:1002D000EF92FF920F931F93CF93DF93CDB7DEB7CB
:1002E0006F970FB6F894DEBF0FBECDBF1092A70276
:1002F0001092A6028EE18F8FBE01615E7F4FCE010C
:1003000001961DD3882309F464C0AF8DB0E06B81E2
:1003100070E0605371094091A2025091A30280E005
:1003200090E020E030E08D0101501109EAE0DE2E7E
:100330002A173B076CF541E050E0E0E0F0E078017F
:10034000E21AF30AEE15FF0544F431965A01DA9CDD
:10035000A001DB9C500D1124F5CF2230310599F01E
:10036000E1E0F0E0EC0FFD1FE20FF31FE081F0E0B1
:10037000F097E49F7001E59FF00CF49FF00C1124BE
:100380008E0D9F1D02C0860F971F2F5F3F4FD0CF4E
:100390005093A3024093A2029093A5028093A402DB
:1003A0000B9714F061E001C060E08BE01FD56AE5B7
:1003B00072E081EF92E0CFD76091A4027091A50224
:1003C0004AE050E081EF92E00E945A0A81EF92E009
:1003D000CAD786E35AD4BC01882777FD8095982F29
:1003E0001F921F921F9224E62F93A12CB12C65011E
:1003F000EE24EA9413E0F12E00E010E020E030E07B
:10040000A9010E94700ADC01CB019093A90280939C
:10041000A8024AE06AEA72E00E94C60C65E672E051
:1004200081EF92E098D76AEA72E081EF92E09ED77E
:100430008AEA92E03EDF6CED75E080E090E08CD3DC
:100440000F900F900F900F906F960FB6F894DEBF3D
:100450000FBECDBFDF91CF911F910F91FF90EF9015
:10046000DF90CF90BF90AF900895682780E1689F9C
:1004700090011124622770E0362F2227492F50E087
:10048000242B352BCB01F4E095958795FA95E1F770
:1004900028273927CB01A3E0880F991FAA95E1F7F8
:1004A0008227932708951F93CF93DF93162FEC0194
:1004B0008FEF9FEF115018F06991D7DFFBCFDF91DD
:1004C000CF911F910895E0E7F2E090E0219182172B
:1004D00029F09F5F9031D1F780E00895892F08952A
:1004E0008093040208958093050208951F93CF938B
:1004F000DF939091DF02992329F08091DC028F5FD6
:100500008093DC022091DE028091DD02921759F087
:10051000803510F42BE001C02DE1820F8093DD02C5
:100520009093DE0203C08C5E8093DD022091DD0299
:10053000203A08F478C08091D7029091D80296951D
:1005400087959093D8028093D7023091DC023530A2
:1005500028F098609093D8028093D702205A209375
:10056000DD021092DC028091DB02882309F44BC08B
:100570008091D6028F5F8093D6028C3008F453C0EE
:10058000C091D702D091D8028C2F8F739CDF182F87
:10059000CE01C6E096958795CA95E1F794DF90E184
:1005A000199F90011124822B9091B60291110EC0D7
:1005B0008093B7029CEF980F9B3140F01092DB02C2
:1005C0008091B5028F5F8093B5022DC0E091B60295
:1005D00091E09E0F9093B602F0E0E854FD4F8083C7
:1005E0009091B6028091B702981750F01092DB02FA
:1005F0008091B4028F5F8093B40281E08093DA022D
:100600001092D60210C08091D7029091D802883300
:100610009B4049F481E08093DB021092D602109255
:10062000B6021092DA02DF91CF911F9108954F9296
:100630005F926F927F92BF92CF92DF92EF92FF9282
:100640000F931F93CF93DF93CDB7DEB72E970FB6DF
:10065000F894DEBF0FBECDBFBC018EE0ECE4F2E04B
:10066000DE01119601900D928A95E1F761157105F1
:1006700009F491C080E090E00E945C0B9B01AC010A
:1006800060E070E080E89FE37ED720E030E040E06B
:100690005EE30E94EA0B6B017C018E010D5F1F4F30
:1006A000BB24B394F801619171918F0180E090E0D7
:1006B0000E945C0B9B01AC0160E074E284E79BE468
:1006C00062D79B01AC0160E070E080E89FE35BD7FC
:1006D0009B01AC01C701B60156D7BDD72B013C0128
:1006E000F2E04F1A5108610871082DEF42162FEF02
:1006F00052066104710428F0B394E7E0BE12D2CF31
:1007000005C0F6E0BF1609F446C00CC062307105A2
:100710008105910508F43FC06115710521E082074C
:100720009105C8F5BB20B9F11092800028E0209314
:100730008100209181002B292093810070938900F2
:100740006093880080916F00826080936F0061E009
:100750008091040212D360E0809105020ED361E023
:10076000809106020AD36091E002809106022E96E3
:100770000FB6F894DEBF0FBECDBFDF91CF911F91B2
:100780000F91FF90EF90DF90CF90BF907F906F9090
:100790005F904F902BC32E960FB6F894DEBF0FBE1E
:1007A000CDBFDF91CF911F910F91FF90EF90DF9020
:1007B000CF90BF907F906F905F904F900895CF93B0
:1007C0001092E6021092E5021092E4026091E002BB
:1007D000C1E06C278091060209D3C093E302CF9158
:1007E00008956091E0028091060200D360E080915C
:1007F0000402FCD21092E30208958091E302811179
:10080000FCCF0895BF92CF92DF92EF92FF920F93A9
:100810001F93CF93DF93F82EE92ED62E8BE1861708
:1008200008F482C0EADFC3E0CD0D6C2F8FEF9FEF9D
:100830001CDEAC2FB0E044E0B595A7954A95E1F7F2
:10084000A059BD4F2C9120930F02CF70EC2FF0E0F8
:10085000E059FD4F2081209310020FE012E0BF2CE1
:10086000CF2DDE2D0E5F1F4F2C2F2B192D15D0F401
:100870007E01C9906C2DF9DDAC2DB0E034E0B5956A
:10088000A7953A95E1F7A059BD4F2C91D8012C932B
:10089000D701EC91EF70F0E0E059FD4F2081F801B5
:1008A0002183E0CF61E06D0D660F80959095E62F76
:1008B000F0E0E15FFD4FDC0114E0B695A7951A95D5
:1008C000E1F7AF70BB27A059BD4F2C912083E1E029
:1008D000E60FF0E0E15FFD4FDC01AF70BB27A059F0
:1008E000BD4F2C912083E2E0E60FF0E0E15FFD4F89
:1008F000DC01AB2FBB27A295AF70A059BD4F2C9147
:100900002083A3E0A60FB0E0A15FBD4FE92FFF2732
:10091000EF70FF27E059FD4F80818C93645F6093F7
:10092000E7024DDF81E001C080E0DF91CF911F91B0
:100930000F91FF90EF90DF90CF90BF900895FB0153
:100940002091DA022223C1F02091B6022350308197
:10095000231708F42083408150E069EB72E00E9485
:10096000BD0C1092DA026091B60288EB92E09BDD3A
:1009700021E0883B904F09F020E0822F08951F92DC
:100980000F920FB60F9211240BB60F922F933F9335
:100990004F935F936F937F938F939F93AF93BF9387
:1009A000EF93FF938091D902882321F08091E30295
:1009B000882361F18091E3028823C1F08091E402F1
:1009C00091E0980F9093E402811110C0E091E6024B
:1009D0008091E702E81700F104DF8091E102909135
:1009E000E20201969093E2028093E1028091E40298
:1009F000883010F01092E4028091D902882361F1CE
:100A00008091E302811128C071DD26C0809105022A
:100A100022D28093DF02CECFF0E0E95FFD4F60810C
:100A20002091E50281E0820F8093E50281E090E071
:100A300001C0880F2A95EAF7682380910402D6D175
:100A40008091E502863090F21092E5028091E602F4
:100A50008F5F8093E602CACFFF91EF91BF91AF9174
:100A60009F918F917F916F915F914F913F912F91C6
:100A70000F900BBE0F900FBE0F901F9018951F92F6
:100A80000F920FB60F9211242F933F938F939F9342
:100A9000AF93BF938091E9029091EA02A091EB029B
:100AA000B091EC023091E80223E0230F2D3720F4BF
:100AB0000196A11DB11D05C026E8230F0296A11DB8
:100AC000B11D2093E8028093E9029093EA02A0937B
:100AD000EB02B093EC028091ED029091EE02A091B6
:100AE000EF02B091F0020196A11DB11D8093ED02BD
:100AF0009093EE02A093EF02B093F002BF91AF91FA
:100B00009F918F913F912F910F900FBE0F901F904B
:100B100018953FB7F8948091ED029091EE02A09164
:100B2000EF02B091F00226B5A89B05C02F3F19F047
:100B30000196A11DB11D3FBF6627782F892F9A2FDF
:100B4000620F711D811D911D42E0660F771F881F86
:100B5000991F4A95D1F708958F929F92AF92BF92B5
:100B6000CF92DF92EF92FF926B017C01D2DF4B01BB
:100B70005C01C114D104E104F104E1F003D5C9DF43
:100B8000681979098A099B09683E734081059105B6
:100B900080F321E0C21AD108E108F10888EE880E3E
:100BA00083E0981EA11CB11CC114D104E104F1041E
:100BB00031F7DFCFFF90EF90DF90CF90BF90AF90F5
:100BC0009F908F900895789484B5826084BD84B599
:100BD000816084BD85B5826085BD85B5816085BD38
:100BE000EEE6F0E0808181608083E1E8F0E0108251
:100BF000808182608083808181608083E0E8F0E092
:100C0000808181608083E1EBF0E08081846080837B
:100C1000E0EBF0E0808181608083E1E9F0E08081B9
:100C200082608083808181608083E0E9F0E0808160
:100C300081608083E1EAF0E080818260808380814E
:100C400081608083E0EAF0E0808181608083E1E27E
:100C5000F1E0808182608083808181608083E0E236
:100C6000F1E0808181608083EAE7F0E08081846048
:100C700080838081826080838081816080838081A5
:100C8000806880831092C1000895863308F08653EF
:100C900020917B00982F9870277F922B90937B0058
:100CA000877020914B0290E4299F90011124822BA0
:100CB00080937C0080917A00806480937A00809198
:100CC0007A0086FDFCCF809178002091790090E039
:100CD000922B089590E0FC013197E231F10508F084
:100CE0004BC0EE58FF4F26C6809180008F7703C01F
:100CF000809180008F7D8093800008958091800096
:100D0000877FF9CF84B58F7702C084B58F7D84BD8E
:100D100008958091B0008F7703C08091B0008F7DDF
:100D20008093B0000895809190008F7707C08091E4
:100D300090008F7D03C080919000877F809390000A
:100D400008958091A0008F7707C08091A0008F7DCB
:100D500003C08091A000877F8093A00008958091B8
:100D600020018F7707C0809120018F7D03C0809183
:100D70002001877F809320010895CF93DF9390E037
:100D8000FC01E25BFE4F2491FC01EC56FE4F849186
:100D9000882349F190E0880F991FFC01E25FFD4F25
:100DA000A591B4918C509E4FFC01C591D4919FB7F1
:100DB000611108C0F8948C91209582238C938881CE
:100DC00082230AC0623051F4F8948C91322F30950E
:100DD00083238C938881822B888304C0F8948C9120
:100DE000822B8C939FBFDF91CF9108950F931F9318
:100DF000CF93DF931F92CDB7DEB7282F30E0F901F4
:100E0000E85FFE4F8491F901E25BFE4F1491F90116
:100E1000EC56FE4F04910023C1F0882319F069833A
:100E200059DF6981E02FF0E0EE0FFF1FEC50FE4F1D
:100E3000A591B4919FB7F8948C91611103C010955E
:100E4000812301C0812B8C939FBF0F90DF91CF91A5
:100E50001F910F910895CF93DF93282F30E0F90170
:100E6000E85FFE4F8491F901E25BFE4FD491F901F6
:100E7000EC56FE4FC491CC2389F081112BDFEC2F6F
:100E8000F0E0EE0FFF1FE652FE4FA591B4912C91BA
:100E90002D2381E090E021F480E002C080E090E02A
:100EA000DF91CF910895FC01818D228D90E0805CCF
:100EB0009F4F821B91098F7399270895FC01918D93
:100EC000828D981731F0828DE80FF11D858D90E0AD
:100ED00008958FEF9FEF0895FC01918D828D9817F3
:100EE00061F0828DDF01A80FB11D5D968C91928D0E
:100EF0009F5F9F73928F90E008958FEF9FEF08950B
:100F000081E299E0892B39F080E090E0892B19F09B
:100F100098D1811125C080E090E0892B41F080E0DC
:100F200090E0892B21F00E94000081111CC080E01C
:100F300090E0892B41F080E090E0892B21F00E9425
:100F40000000811113C080E090E0892BA1F080E0C7
:100F500090E0892B81F00E94000081110AC0089561
:100F60000E940000D8CF0E940000E1CF0E94000044
:100F7000EACF0C9400000895FC01848DDF01A80FD6
:100F8000B11DA35ABF4F2C91848D90E001968F73B1
:100F90009927848FA689B7892C93A089B1898C91D0
:100FA00080648C93938D848D981306C00288F38996
:100FB000E02D80818F7D80830895CF93DF93EC01B6
:100FC000888D8823C1F0EA89FB89808185FD05C071
:100FD000A889B9898C9186FD0EC00FB607FCF5CFA4
:100FE000808185FFF2CFA889B9898C9185FFEDCFEB
:100FF000CE01C2DFE8CFDF91CF910895CF92DF928B
:10100000FF920F931F93CF93DF931F92CDB7DEB75D
:101010006C0181E0D60158968C9358975B969C9111
:101020005B975C968C915C97981307C05096ED91F6
:10103000FC915197808185FD2DC0F601038D10E054
:101040000F5F1F4F0F731127F02EF601848DF812DA
:1010500010C00FB607FCF9CFD6015096ED91FC9168
:101060005197808185FFF1CFC601698385DF698152
:10107000ECCF838DE80FF11DE35AFF4F6083D6015B
:101080005B960C935B975296ED91FC915397808100
:1010900080620CC0D6015696ED91FC915797608303
:1010A0005096ED91FC91519780818064808381E01E
:1010B00090E00F90DF91CF911F910F91FF90DF9003
:1010C000CF900895BF92CF92DF92EF92FF92CF938D
:1010D000DF93EC016A017B01B22EE889F98982E095
:1010E0008083411581EE58076105710599F060E034
:1010F00079E08DE390E0A7019601DED3215031091C
:10110000410951095695479537952795211580E155
:10111000380790F0E889F989108260E874E88EE178
:1011200090E0A7019601C8D3215031094109510926
:101130005695479537952795EC85FD853083EE8547
:10114000FF852083188EEC89FD89B082EA89FB89AE
:10115000808180618083EA89FB89808188608083C7
:10116000EA89FB89808180688083EA89FB898081A4
:101170008F7D8083DF91CF91FF90EF90DF90CF90B4
:10118000BF9008951F920F920FB60F9211240BB6C5
:101190000F922F938F939F93EF93FF93E09101030F
:1011A000F09102038081E0910703F091080382FD32
:1011B00012C0908180910A038F5F8F7320910B037F
:1011C000821751F0E0910A03F0E0EF50FD4F958F48
:1011D00080930A0301C08081FF91EF919F918F91CD
:1011E0002F910F900BBE0F900FBE0F901F90189570
:1011F0001F920F920FB60F9211240BB60F922F93DE
:101200003F934F935F936F937F938F939F93AF938E
:10121000BF93EF93FF9381EF92E0AEDEFF91EF91EA
:10122000BF91AF919F918F917F916F915F914F91FE
:101230003F912F910F900BBE0F900FBE0F901F90FC
:10124000189581EF92E02FDE21E0892B09F420E050
:10125000822F08951092F4021092F30288EE93E028
:10126000A0E0B0E08093F5029093F602A093F7021D
:10127000B093F80284E892E09093F2028093F10236
:1012800085EC90E09093FE028093FD0284EC90E068
:10129000909300038093FF0280EC90E09093020310
:1012A0008093010381EC90E0909304038093030307
:1012B00082EC90E0909306038093050386EC90E027
:1012C000909308038093070310920A0310920B0374
:1012D00010920C0310920D030895CF92DF92EF92BB
:1012E000FF920F931F93CF93DF937C016A01EB0171
:1012F00000E010E00C151D0571F06991D701ED912A
:10130000FC910190F081E02DC7011995892B19F00E
:101310000F5F1F4FEFCFC801DF91CF911F910F914A
:10132000FF90EF90DF90CF9008956115710581F0E7
:10133000DB010D900020E9F7AD0141505109461B3A
:10134000570BDC01ED91FC910280F381E02D1994A3
:1013500080E090E00895E9CFDC01ED91FC910190EF
:10136000F081E02D199460E972E0DFCF0F931F93B5
:10137000CF93DF93EC01D9DF8C01CE01F4DF800F36
:10138000911FDF91CF911F910F9108958F929F929E
:10139000AF92BF92DF92EF92FF920F931F93CF9382
:1013A000DF93CDB7DEB7A1970FB6F894DEBF0FBEBF
:1013B000CDBF7C01F42FD52ECB0119A2223008F429
:1013C0002AE08E010F5D1F4F822E912CA12CB12C93
:1013D0006F2F7D2DA50194016FD2F22FD32ECA015C
:1013E000015011096A3014F4E0E301C0E7E3E60FAD
:1013F000D801EC93232B242B252B51F7B801C701DF
:1014000094DFA1960FB6F894DEBF0FBECDBFDF917B
:10141000CF911F910F91FF90EF90DF90BF90AF9011
:101420009F908F900895CF92DF92EF92FF920F934B
:101430001F93CF93DF93EC016A017B0121153105E6
:1014400079F4E881F9810190F081E02D642FDF913A
:10145000CF911F910F91FF90EF90DF90CF90199453
:101460002A303105D9F477FF18C06DE275DF8C01A1
:1014700044275527BA014C195D096E097F092AE0F6
:10148000CE0184DF800F911FDF91CF911F910F91CB
:10149000FF90EF90DF90CF9008952AE0B701A6016A
:1014A000CE01DF91CF911F910F91FF90EF90DF90D0
:1014B000CF906CCF0F931F93CF93DF93EC019A01E2
:1014C000AB01662757FD6095762FADDF8C01CE010D
:1014D0004ADF800F911FDF91CF911F910F910895E7
:1014E0004F925F926F927F92AF92BF92CF92DF92B4
:1014F000EF92FF920F931F93CF93DF93CDB7DEB799
:1015000029013A01621B730B840B950B2A893B89D5
:101510004C895D892A193B094C095D092A8B3B8B53
:101520004C8B5D8B9B01AC016A897B898C899D8981
:10153000B4D1E418F50806091709A8019701DED10E
:101540002A0D3B1D4C1D5D1DCA01B901DF91CF91D4
:101550001F910F91FF90EF90DF90CF90BF90AF90D1
:101560007F906F905F904F90089508952CDBFDDF82
:101570000E944701C0E8D7E00E9464012097E1F390
:10158000BFDCFACF08950CD0EBC0E3D040F0DAD046
:1015900030F021F45F3F19F0CCC0511115C1CFC01C
:1015A000F0D098F39923C9F35523B1F3951B550B4C
:1015B000BB27AA2762177307840738F09F5F5F4F26
:1015C000220F331F441FAA1FA9F333D00E2E3AF067
:1015D000E0E830D091505040E695001CCAF729D081
:1015E000FE2F27D0660F771F881FBB1F26173707D0
:1015F0004807AB07B0E809F0BB0B802DBF01FF2700
:1016000093585F4F2AF09E3F510568F092C0DCC0AE
:101610005F3FECF3983EDCF3869577956795B79539
:10162000F7959F5FC9F7880F911D9695879597F954
:101630000895E1E0660F771F881FBB1F62177307CD
:101640008407BA0720F0621B730B840BBA0BEE1FE2
:1016500088F7E095089504D06894B111B5C0089555
:1016600098D088F09F5790F0B92F9927B751A0F0E4
:10167000D1F0660F771F881F991F1AF0BA95C9F726
:1016800012C0B13081F09FD0B1E008959CC0672FA7
:10169000782F8827B85F39F0B93FCCF386957795D6
:1016A0006795B395D9F73EF49095809570956195BF
:1016B0007F4F8F4F9F4F0895E89409C097FB3EF4EA
:1016C00090958095709561957F4F8F4F9F4F99238F
:1016D000A9F0F92F96E9BB279395F695879577950D
:1016E0006795B795F111F8CFFAF4BB0F11F460FFCD
:1016F0001BC06F5F7F4F8F4F9F4F16C0882311F025
:1017000096E911C0772321F09EE8872F762F05C038
:10171000662371F096E8862F70E060E02AF09A95D3
:10172000660F771F881FDAF7880F9695879597F9C8
:10173000089597F99F6780E870E060E008959FEF53
:1017400080EC089500240A94161617061806090658
:10175000089500240A941216130614060506089527
:10176000092E0394000C11F4882352F0BB0F40F4AF
:10177000BF2B11F460FF04C06F5F7F4F8F4F9F4FEF
:10178000089557FD9058440F551F59F05F3F71F071
:101790004795880F97FB991F61F09F3F79F08795D8
:1017A0000895121613061406551FF2CF4695F1DF61
:1017B00008C0161617061806991FF1CF86957105F1
:1017C000610508940895E894BB2766277727CB0125
:1017D00097F908950BD0C4CFB5DF28F0BADF18F021
:1017E000952309F0A6CFABCF1124EECFCADFA0F32B
:1017F000959FD1F3950F50E0551F629FF001729FA6
:10180000BB27F00DB11D639FAA27F00DB11DAA1FC4
:10181000649F6627B00DA11D661F829F2227B00D11
:10182000A11D621F739FB00DA11D621F839FA00D9C
:10183000611D221F749F3327A00D611D231F849FEC
:10184000600D211D822F762F6A2F11249F57504043
:101850008AF0E1F088234AF0EE0FFF1FBB1F661FDE
:10186000771F881F91505040A9F79E3F510570F097
:1018700060CFAACF5F3FECF3983EDCF38695779577
:101880006795B795F795E7959F5FC1F7FE2B880F92
:10189000911D9695879597F90895DB018F939F93F6
:1018A0004FD0BF91AF91A29F800D911DA39F900D2E
:1018B000B29F900D11240895A1E21A2EAA1BBB1B02
:1018C000FD010DC0AA1FBB1FEE1FFF1FA217B3070C
:1018D000E407F50720F0A21BB30BE40BF50B661F22
:1018E000771F881F991F1A9469F7609570958095E6
:1018F00090959B01AC01BD01CF010895052E97FB8A
:1019000016F400940FD057FD05D0D6DF07FC02D0A7
:1019100046F408C050954095309521953F4F4F4F64
:101920005F4F089590958095709561957F4F8F4F8B
:101930009F4F0895EE0FFF1F0590F491E02D19942D
:101940000DD0A59F900DB49F900DA49F800D911D6B
:10195000112408950790F691E02D1994A29FB001EB
:10196000B39FC001A39F700D811D1124911DB29FD3
:10197000700D811D1124911D0895FB01DC0102C031
:1019800001900D9241505040D8F70895BB274A303E
:1019900031F4992322F4BDE2909581959F4F01C0C7
:1019A000BB27FB015527AA27880F991FAA1FA41739
:1019B00010F0A41B83955051B9F7A05DAA3308F02D
:1019C000A95DA193009779F7B111B1931192CB0161
:1019D00000C0DC01FC01672F71917723E1F732979A
:1019E00004C07C916D9370836291AE17BF07C8F3FA
:0619F0000895F894FFCFFA
:1019F600010000000C0B0A2A2A2A2A2A2A382C005F
:101A060000000000000000000000000000000000D0
:101A160000000000000000000000000000000000C0
:101A260000000000000000000000000000000000B0
:101A3600000000000000000000000001000001009E
:101A46000800400000010004050D526563656269E7
:101A5600646F3A2000456E7669616E646F3A2000C5
:101A66000D0E131516191A1C232526292A2C323475
:101A760000000000FE076D0953076C075E07DD07CF
:101A86000D0A006E616E00696E66006F7666002E46
:021A960000004E
:00000001FF
